{
  "contractName": "testtest",
  "abi": [
    {
      "inputs": [],
      "name": "testCalculation",
      "outputs": [
        {
          "internalType": "uint256",
          "name": "",
          "type": "uint256"
        }
      ],
      "stateMutability": "view",
      "type": "function"
    }
  ],
  "bytecode": "0x608060405267112210f47de9811560005534801561001c57600080fd5b5060d98061002b6000396000f3fe6080604052348015600f57600080fd5b506004361060285760003560e01c80634685b69c14602d575b600080fd5b60336049565b6040518082815260200191505060405180910390f35b600080606460016000540281605a57fe5b04905060008160005403905060008290506000606460016002850a0281607c57fe5b046002840a036003840a81608c57fe5b04905082810393508382039150819450505050509056fea2646970667358221220d9b63de768175aa9b64990c195ca4911a66d945c969895db684c6064f8cae82264736f6c63430007050033",
  "immutableReferences": {},
  "source": "pragma solidity ^0.7.5;\n\ncontract testtest {\n    uint test = 1234567890123456789;\n\n\n    function testCalculation() public view returns(uint) {\n        uint fee = test*1/100;\n        uint d = test-fee;\n        uint collectedFees = fee;\n\n        uint D = d**3/(d**2-((d**2*1)/100));\n        fee = D-d;\n        collectedFees -=fee;\n        return(collectedFees);\n    }\n}\n",
  "sourcePath": "/Users/antoinedevuyst/eth2/uStake/contracts/uPool-test-suite/contracts/testtest.sol",
  "compiler": {
    "name": "solc",
    "version": "0.7.5+commit.eb77ed08.Emscripten.clang"
  },
  "schemaVersion": "3.3.2",
  "updatedAt": "2020-12-08T22:18:07.431Z",
  "devdoc": {
    "kind": "dev",
    "methods": {},
    "version": 1
  },
  "userdoc": {
    "kind": "user",
    "methods": {},
    "version": 1
  }
}